:020000040800F2
:1000000090070020AD01000885290008ED210008B7
:10001000AD270008491F00082B3900080000000028
:100020000000000000000000000000007D2B000820
:10003000FD1F0008000000000D2A0008312D0008F7
:10004000C7010008C7010008C7010008C701000870
:10005000C7010008C7010008C7010008C701000860
:10006000C7010008C7010008C7010008C701000850
:10007000C7010008C7010008C7010008C701000840
:10008000C7010008C7010008C7010008C701000830
:10009000C7010008C7010008C7010008C701000820
:1000A000C7010008C7010008C7010008C701000810
:1000B000112E0008292E0008412E0008C701000853
:1000C000C7010008C7010008C7010008C7010008F0
:1000D000C701000899350008FD35000861360008A1
:1000E000C7010008C7010008C701000800F002F8B6
:1000F00000F04DF80AA090E8000C82448344AAF175
:100100000107DA4501D100F042F8AFF2090EBAE872
:100110000F0013F0010F18BFFB1A43F0010318473B
:10012000907D0000B07D0000103A24BF78C878C1EF
:10013000FAD8520724BF30C830C144BF04680C60ED
:10014000704700000023002400250026103A28BF35
:1001500078C1FBD8520728BF30C148BF0B60704739
:10016000662904F01D84002070471FB500F066FB6F
:1001700004000020002103F06BFE401C60600020A2
:10018000002103F04FFEE0601FBD10B510BD00F070
:1001900081FC1146FFF7E9FF03F0E0FC00F024FFCB
:1001A00003B4FFF7F2FF03BC01F092F9094880475E
:1001B00009480047FEE7FEE7FEE7FEE7FEE7FEE749
:1001C000FEE7FEE7FEE7FEE704480549054A064B61
:1001D00070470000B12D0008ED00000890010020DC
:1001E0009007002090030020900300200FB41CB55E
:1001F000074B06AA7B4469460090059800F0B3FAC5
:100200000020694600F0C2FA1CBC5DF814FB000037
:10021000950500002DE9F0474FF0000A8946044695
:10022000C0F820A02046E1688847002876D025281D
:1002300006D0D4E901219047206A401C2062F1E7F2
:10024000E168204600258847C4F81CA00646002720
:10025000C4F818A02A2E09D0304603F0FCFB38B3AE
:1002600004EB8708303EC8F8186019E059F8041B01
:10027000204604EB87029161E1688847012F06461A
:1002800018D1E069002820DA25F020051DE0D8F813
:10029000180000EB800006EB40003038C8F818006A
:1002A0002046E1688847064603F0D5FB0028EED1DA
:1002B000012F0AD02E2E08D12046E16888477F1CE6
:1002C0000646022F45F02005C4DBA069002803DAAA
:1002D000404245F00105A061E80701D025F0100576
:1002E000B6B1A6F14100192802D8203645F40065C0
:1002F0004A463146204625604D46FFF731FF58B14A
:10030000012806D0ED1D25F0070000F1080989E756
:1003100004E005F1040985E730468AE7206ABDE874
:10032000F08770477047704710B500F08BFA00688F
:1003300010BD10B5044600F085FA046010BD70478A
:100340002DE9FF4F0C461E464FF0FF378BB0D2E928
:100350000001DDF860800A908A46C1F30A5505B9AC
:100360003D46002108464FF00000BAF1000F00F4AE
:10037000400005DA00EB80004FF4400101EA500034
:100380004FEA9059B9F1010F00DDB9460A9850EAD9
:100390004A000ED044F61050A5F2FF3545432F1405
:1003A000B8F1000F1ED07542291E1EDDC9F10002F2
:1003B0001CE0B8F1010F4FF0000001D0302103E044
:1003C000F24305E02154401CB042FBDB30460022E2
:1003D000002121540B99C1F80880C1E900200FB019
:1003E000BDE8F08FBD1B6D1CDEE74A4600DA6942AE
:1003F00006A800F0D9FA06AB93E8070003AB83E840
:10040000070050460A9901F08BF88DE80700A0F527
:1004100000501F3800900398002D0ADD42F21F01A2
:100420004A460844002303A90390684601F036FBBE
:1004300009E0A0F500504A461F38002303A90390A5
:10044000684601F055FB8DE807000004000C03D05E
:100450004FF0FF30410800E01046B8F1000F03D024
:100460000022009215461EE0751E05D400F0EEF93C
:10047000303262556D1EF9D5B3460122084302D0D1
:1004800000227F1C04E02078302801D100227F1E4A
:10049000002A099784D01DE0112D07DA00F0D6F963
:1004A000303262556D1C50EA0102F5D1084302D08A
:1004B0000098C8B10EE00021681E05E0235C625C74
:1004C00063542254401E491C8142F7DBAB46A81BF3
:1004D000401E0990002004F80B000B98099AC0F800
:1004E0000880C0E9002B7AE711264FF0000857E793
:1004F0002DE9F04F88460446D21D22F0070191B045
:10050000D1E90001CDE90A0103F011FA02460B9886
:10051000C00F01D02D2007E02068810701D52B20D6
:1005200002E0202101EAC000032A099001D0072A35
:1005300005DB03464146204600F0D6F90BE1207862
:10054000800601D5E06900E00620B8F1650F81461C
:1005500006D0B8F1660F18D0B8F1670F70D131E04E
:100560000020B9F1110F009001DB112301E009F126
:1005700001030AAA01A90CA8FFF7E2FEDDE90C704D
:10058000002609F10105834647E001204B46009013
:100590004FF000470AAA01A90CA8FFF7D1FEDDE938
:1005A0000DB00C995D46002610B909F101000D1837
:1005B000B9EB050003D4C0F1FF3609F10105A5EB45
:1005C00009002BE0B9F1010F01DA4FF00109002019
:1005D000B9F1110F0090484601DD112300E00346F8
:1005E0000AAA01A90CA8FFF7ABFEDDE90C704D4685
:1005F00000268346207800070AD4AB4500DA5D4622
:1006000001A8012D04DD411911F8011C302907D082
:100610004F4502DA17F1040F04DA012082460FE099
:100620006D1EEEE7002F02DCED1B3E4403E0781C5C
:10063000A84200DD7D1CB81B00F1010A4FF0004705
:100640002078000703D4AA4501DB4FF0FF3A0021D0
:10065000B7F1004F0DF143088DF8431024D002206C
:100660002B23002F01DA7F422D230A21021EA0F145
:10067000010000DC5FB197FBF1FC97FBF1F201FB9D
:100680001C7C17460CF1300C08F801CDEEE7A8F100
:10069000010003702188090501D5452100E065218D
:1006A000A0F1010800F8011C09980FA9A1EB0807A7
:1006B000FF1D00B10120411901EBEA70A169384426
:1006C000081A401EA0612078C00602D42046AFF36D
:1006D0000080099828B1D4E901219047206A401C84
:1006E00020622078C00622D52046AFF300801EE0AD
:1006F000002E04DBB34502DD01A8805D00E0302060
:10070000D4E901219047206A401C2062761CAAF19E
:1007100001005FEA000A0AD100F090F8C0680168A1
:10072000405CD4E901219047206A401C2062281EC9
:10073000A5F10105DCDC07E0D4E9012118F8010B83
:100740009047206A401C2062381EA7F10107F3DCA5
:100750002046AFF30080032011B041E601694A1C36
:1007600002610878704700B58FB0CDE901310021F2
:10077000059105497944CDE9031011466846FFF714
:1007800049FD0FB000BD0000E5FFFFFF0A6802F859
:10079000010B0A60704700000FB4002300B589B058
:1007A0000CA900910B99CB60214B7B440693214B04
:1007B0007B44079304236FF00042CDE901321E4AC7
:1007C0007A446B4608920246002004F04BF909B0C7
:1007D0005DF814FB70B506464FF0FF3015460C4629
:1007E000324686B00091CDE90101694600200490AF
:1007F00004A8FFF7D1FF02460498211825B108B1DB
:10080000084600E020462860049800280DD0002A01
:1008100002DD0098884208D03246081B69460094E1
:10082000CDE9010404A8FFF7B7FF06B070BD0000D2
:10083000BB010000D3010000130100000048704715
:100840004C010020004870472C01002030B5B0F169
:100850000A024FEA900E71F100034EEA817EB0EB7E
:100860000E0061EB91014FEA101E4EEA017E10EB83
:100870000E0041EB11114FEA102E4EEA016E10EB03
:100880000E0041EB11214FEA104E4EEA014E10EBE3
:100890000E0041EB1141401841F100014FEAD00038
:1008A00040EA41704FEAD10110EB80054FEA810424
:1008B00044EA907444EB01046D1944EB0404521BA8
:1008C000A3414FF0000348BF0A3200D530BD401CA1
:1008D00041F1000130BD10B5044600F001F9006897
:1008E000005D00F0010010BD2DE9F0411F460446F7
:1008F00003260168072A01F4006004DB08B116A58D
:1009000005E016A503E008B115A500E015A521F046
:1009100010002060A069C01EA0610FB1401EA06140
:100920002046AFF300804FB1D4E90121384690470B
:10093000206A401C2062C01C206206E0206AFAE7A0
:10094000D4E9012115F8010B9047761EF8D2204614
:10095000AFF30080BDE8F0814E414E006E616E0045
:10096000494E4600696E6600426842B1016811F85E
:10097000013B23B1521EC0E9001218467047012105
:10098000C160881E704742685AB1C368016843B9A4
:1009900083688B4205D0491E521CC0E9001200201A
:1009A00070474FF0FF3070472DE9F04781461646FB
:1009B0008AB0354878440DC88DE80D003248784437
:1009C000801C03AC0DC884E80D0041F69B30084440
:1009D000372190FBF1F290FBF1F5A5F1800501FBC9
:1009E00012041B3C02D56442012000E00020DFF825
:1009F00098A080460027FA44AAF1BE0A0EE0E0075C
:100A00000AD03246684607EB470101230AEB810111
:100A100001F06EF88DE8070064107F1C002CEED109
:100A2000194F7F44AE3F19E0E80715D007EB0410DB
:100A30000DF1180A90E80E008AE80E00C068F04236
:100A400001D1981908903246012306A903A801F0A4
:100A50004FF803AB83E807006D10641C002DE3D151
:100A60004FF0010332466946B8F1000F03A802D0E7
:100A700001F014F801E001F03BF8C9E90001C9F800
:100A800008200AB0BDE8F087E07400000048704715
:100A90002C0100207546FFF7F9FFAE4605006946B8
:100AA000534620F00700854618B020B5FFF78CFBB1
:100AB000BDE820404FF000064FF000074FF000085F
:100AC0004FF0000B21F00701AC46ACE8C009ACE8E0
:100AD000C009ACE8C009ACE8C0098D467047000009
:100AE00010B5FFF7ABFE001D10BD00BF6533000061
:100AF0002DE9FF4F06468BB00878FF2806D0491C29
:100B00002D2805D000244FF0000908E000200CE05B
:100B10000124F8E709EB8903491C00EB4309087835
:100B2000FF28F7D114B1C9F10000814610780025E3
:100B30002C46AA4629462D2801D02B2804D1521C28
:100B40002D2813D0002082468B461078FF280FD026
:100B50004FF0000C0A21521CA5FB017804FB018117
:100B600005FB0C11C5194BEB0104EEE70120EAE788
:100B7000002108464FF00000BAF1000F02D000EB50
:100B800080004008C0F38157012F01DD4FF0FF378F
:100B90000E9955EA040009EB01080BD04FF0020949
:100BA00018F5FA7F16DA4FEACA70002F706008DD78
:100BB000012007E04FEACA70C6E900B00FB0BDE8F7
:100BC000F08F00203060FFF73DFEC0F80090182144
:100BD000084616E0B8F5FA7F18DD002F02DAF7486C
:100BE000784401E0F6487844D0E90010C6E90010E6
:100BF00040EACA707060FFF725FEC0F8009014212B
:100C000008460FB0BDE8F04F03F0C7BE002108460C
:100C10004FF00000B8F10001099002DAC7F10002BC
:100C200000E03A4601DAC8F1000106A8FFF7BCFE71
:100C300006AB93E8070003AB83E8070044F23E00ED
:100C40005BEA04010090584604D144F21E012C4690
:100C50005D460091210C0904014306D1009924044A
:100C600044EA15442D041039009104F07F410143FA
:100C700006D10099240244EA15642D020839009136
:100C800004F07041014306D10099240144EA15742F
:100C90002D01091F009104F04041014306D1009944
:100CA000A40044EA9574AD00891E009104F000414F
:100CB000084304D100986D196441401E00904FF024
:100CC00001033A466846B8F1000FCDE9014503A992
:100CD00002DD00F022FF01E000F0F5FEBAF1000FA6
:100CE00004460D4601D084F00044002108464FF030
:100CF0000000099940F2FF77484010F00C0F07D12F
:100D000024F00040284303D0C4F30A50B84212D163
:100D1000FFF798FDC0F80090C4F30A50B8420AD11A
:100D2000A8487844D0E90010C6E9001004F000415A
:100D30000843706042E7C6E900543FE72DE9FF4FE2
:100D40001F464FF0000A4FF0FF38454691B0D7E9F3
:100D50000146CDF83CA0FFF771FDC0680168405C1A
:100D60001090B96912986D1C8847396A8146884786
:100D70000028F6D1B9F1FF3F0AD0002E24F4D06448
:100D800011DDB9F12B0F08D0B9F12D0F0BD102E015
:100D9000404615B013E744F48064B96912986D1C9D
:100DA0008847761E8146600504A901D52D2000E004
:100DB0002B20002E01F1010B0DF130088DF81000F1
:100DC0003FDDB9F1690F08D0B9F1490F05D0B9F18C
:100DD0006E0F02D0B9F14E0F1CD13B4601A8009511
:100DE00080E85002DDE912126FF0020003F03EFECF
:100DF000C11CCED10EE0B96912986D1C884781469E
:100E00001398761E44F4007405600F98401C002E61
:100E10000F9016DDB9F1300FEDD0B9F1780F02D097
:100E2000B9F1580F0DD10F9801280AD13B46CDE9F1
:100E30000054DDE91212001F029603F015FEC11CDA
:100E4000A7D1109989453ED144F0800406E013995A
:100E5000681CAAF1010A44F400740860B9696D1CA9
:100E60001298761E884730288146F0D02BE01099E2
:100E7000894505D1200603D4761E44F0800418E08D
:100E8000484602F0E8FD08B3761E0DF123018B45BC
:100E900044F4007408D2A9F130000BF8010B2006CD
:100EA00007D5AAF1010003E0200602D40AF10100EF
:100EB0008246A00502D51399681C0860B96912988A
:100EC0006D1C88478146002ED1DC53E0002E51DD99
:100ED000B9F1650F02D0B9F1450F4BD1A00549D545
:100EE000B9696D1C1298761E24F440748847002E50
:100EF00081460CDD2B2804D0B9F12D0F07D144F425
:100F00008074B96912986D1C8847761E8146E00589
:100F100001D52D2100E02B2108F8011BCDF8008020
:100F200021E0761E0DF13901884544F400740CD29D
:100F3000A9F1300010F0FF0088F8000002D10099FC
:100F4000884509D908F1010806E0E00501D51E48E9
:100F500001E042F20F708246B96912986D1C884711
:100F6000814613980560002E04DD484602F073FDAB
:100F70000028D6D1F96912988847FF2053468BF88C
:100F8000000088F8000000200A900B9004AA0CA929
:100F90000AA8FFF7ADFDA00502D46FF00100F8E646
:100FA00014F0240F12D0E0071CD13868DDE90A12D2
:100FB000031D3B600068C0E9001213E0F4720000FA
:100FC000E6720000AA710000F1D8FFFF0AA9684686
:100FD00002F0D0FCE00705D13868009A011D3960A5
:100FE000006802602846D4E610B50446AFF30080DE
:100FF0002046BDE81040FFF7D3B800004FF0013C99
:1010000050F8042B51F8043B9A4221D1A2EB0C0377
:10101000934313EACC1317D150F8042B51F8043B37
:101020009A4215D1A2EB0C03934313EACC130BD1D4
:1010300050F8042B51F8043B9A4209D1A2EB0C035F
:10104000934313EACC13DBD04FF00000704700BF8E
:10105000D01A01BAB1FA81F101F0180122FA01F0B7
:10106000CB40C1F12001DBB2C0B2C01A2CFA01F3AF
:10107000D11A914311EAC311E6D170472DE9FF4F10
:101080001F464FF03C0987B04FF00042DDE91410D5
:1010900001F10108DDF858A002EA40500390002059
:1010A00005908346054604460490B969461E089893
:1010B0008847AAF1010A0290BAF1000F3BDD0298BD
:1010C0002E2815D0102100F01CFA00282EDB4FF03E
:1010D000010B0599014317D0B9F1000F0BDB4A460C
:1010E000C11700F0FBF905430C43A9F1040905E021
:1010F000012004900BE008B145F0010501200590A6
:10110000049820B9361D02E0049800B1361FB96971
:10111000089808F101088847BBF1000FAAF1010AFD
:101120000290C9D00999C1F80080C5E702987028DB
:1011300008D0502806D0F96908988847BBF1000FFD
:1011400014D04FE0002002900120BBF1000F04906A
:1011500009D0B969089808F101088847AAF101097E
:10116000B9F1000F07DCF969089888476FF00100B2
:101170000BB0BDE8F08F2B2804D02D280CD14FF0F8
:10118000FF300490B969089808F101088847A9F16F
:101190000109B9F1000FE6DD411CE4D00A2100F09D
:1011A000B0F90028DFDB029908F1010801EB8101A9
:1011B00000EB41000290B969089888470A2100F0C5
:1011C000A0F9099AA9F10109B9F1000FC2F800804C
:1011D00001DD0028E7DAF969089888470499029840
:1011E00000FB016655EA040004D004F04041090008
:1011F00002D006E0039898E0A40044EA9574AD009C
:10120000B61E04F00041080002D16D196441761E3B
:10121000159810F0240F03D04FF00B095C4803E041
:101220004FF028096FF07D008246564507DAAAEB99
:1012300006018944B9F1410F01DD4FF04109012058
:101240000021A9F1010200F049F9024628400B46AD
:101250002140084301D0012100E00021501E0291ED
:1012600043F1FF3128402140084301D0012000E034
:1012700000200299834651EA0B014FD00021084615
:101280004FF00000039900F4400039B100EB8000FA
:101290004FF4400100EBD07001EA60008015012896
:1012A00002DD4FF0FF3000E013D0401C36D0029832
:1012B00060B3BBF1000F0CD14A460120002100F0C1
:1012C0000DF928402140084301D0012000E0002012
:1012D000E0B101204A46002100F000F90346401920
:1012E0000A4661412D1A8C4111D3B9F1400F09DD35
:1012F000159810F0240F02D0AAF1340603E0AAF1E9
:10130000170600E0761C00254FF0004406E05B1E47
:1013100042F1FF3220EA030521EA0204CAF101008A
:10132000B04206DA1B490398084301900020009060
:101330000EE0039AC4F3D321E80A0A43164940EAAF
:1013400044500A433146CDE90002684602F078FB7A
:10135000159810F0240F0BD01598C00715D13868D8
:10136000DDE90012031D3B600068C0E900120CE0DB
:1013700002A8694602F0FEFA1598C00705D1386840
:10138000029A011D3960006802604046F0E60000E4
:1013900002FCFFFF0000F07F0000F03F2DE9FF4F4F
:1013A00092461D4685B04FF00041DDE9124BDDE964
:1013B00014727F1E01EA4B50414940F0FF4940EA58
:1013C0000108002122F020004928049102D04E2873
:1013D00028D04CE03BA0012607C88DE80700A9698A
:1013E0000698641C88477F1E014606D41DF8060037
:1013F00018B121F0200181420BD0E9690698884795
:10140000032E34D0082E32D06FF0010009B0BDE8B1
:10141000F08F761C032E01D0082EE0D1601CCAF894
:101420000000DCE7A9690698641C88477F1E2AD45F
:1014300020F02000412826D1A9690698641C88471D
:101440007F1E20D420F020004E281CD1A9690698C8
:10145000641C88477F1E48F4002849F48009CAF8B4
:10146000004001D4282806D0E969069888475FEA39
:10147000CB7012D022E0A9690698641C88477F1EB1
:1014800001D4002803DAE96906988847BCE72928CF
:10149000F1D1641CCAF80040E9E71BF0240F07D023
:1014A00028680499031D2B600068C0E9001805E056
:1014B0002868021D2A600068C0F800902046A5E751
:1014C0000000F07F494E46494E4954590000000043
:1014D00001491820ABBEFEE726000200B2F120034E
:1014E0000AD5C2F1200301FA02F120FA03F300FA4F
:1014F00002F041EA0301704700FA03F14FF00000E7
:1015000070473A2800D2303820F02002412A01D317
:10151000A2F13700884201D34FF0FF307047704787
:101520005FEA400C08BF91F0000F4FEA8C234FEAAE
:10153000C12243EA51514FEA1C5018BF00F5F04058
:101540004FEA300018BF41F000415FEA6C5C00F0E8
:101550002980BCF1FF3F08BF40F080407047130C6A
:1015600006BF12044FF0100C4FF0000C130E04BF16
:1015700012020CF1080C130F04BF12010CF1040C41
:10158000930F04BF92000CF1020CD30F04BF520062
:101590000CF1010C11464FF00002A0F11F00A0EB6E
:1015A0000C00704711F0004F08BF704731F0004148
:1015B0003FF4D5AF0B0C06BF09044FF0100C4FF0F1
:1015C000000C0B0E04BF09020CF1080C0B0F04BF3A
:1015D00009010CF1040C8B0F04BF89000CF1020C03
:1015E000CB0F04BF49000CF1010CCCF12003A0EBA0
:1015F0000C0022FA03F302FA0CF241EA030100F1B3
:101600000100704720F07F4C80EA030023F07F4701
:10161000ACEB070303F57C5300F0004003F1FF033C
:101620002DE980494FEA154B09B44FEA144325EAE6
:101630000B4E24EA03480FF2042606EB1327490851
:101640003E785FEA320203FB0667C7F5000707FB37
:1016500006F64FEA54374FEAD64606F1020607FB74
:10166000066CCCF1005C4FEA1C472CEA074C07FBE8
:1016700006F40CFB06F504EB15464FEA961634BF4C
:1016800000204FF000404FEAD13706FB07FC4FEA3D
:101690001C4C0CFB0BF7D21B03FB0CF761EB070197
:1016A0000CFB0EF7B0EB074072EB17420CFB08F790
:1016B00034BFA2EB0742B2EB074261EB17414FEA9E
:1016C0000C444FEA910706FB07FC4FEA1C4C0CFB4D
:1016D0000BF7B0EBC74072EB573203FB0CF734BF8C
:1016E000A2EBC742B2EBC74261EB57310CFB0EF7DE
:1016F000B0EBC70072EB57720CFB08F734BFA2EBDC
:10170000C702B2EBC70261EB5771039F4FEA8161D9
:1017100041EA921104EBCC044FEAD1374FEA8262DE
:1017200006FB07FC42EA90124FEA80604FEA1C4C2D
:101730000CFB0BF7D21B03FB0CF761EB07010CFB57
:101740000EF7B0EB074072EB17420CFB08F734BF03
:10175000A2EB0742B2EB074261EB17414FEA8C550F
:101760004FEA910704EB9C2406FB07FC4FEA1C4C54
:101770000CFB0BF7B0EBC74072EB573203FB0CF7D7
:1017800034BFA2EBC742B2EBC74261EB57310CFB4F
:101790000EF7B0EBC70072EB57720CFB08F734BFC3
:1017A000A2EBC702B2EBC70261EB577115EB4C25F8
:1017B0004FEA816141EA92114FEA82624FEAD137E2
:1017C00042EA901206FB07FC44F100044FEA8060F5
:1017D0004FEA1C4C0CFB0BF7D21B03FB0CF761EB25
:1017E00007010CFB0EF7B0EB074072EB17420CFB46
:1017F00008F734BFA2EB0742B2EB074261EB174197
:1018000015EB1C154FEA813141EA92414FEA8232D1
:1018100042EA90424FEA80304FEA0C7644F10004ED
:1018200048EA03434EEA0B484FF0000EB2EB080CB7
:1018300071EB030724BF624639464EEB0E0E4FF0A4
:10184000000B0018524149414BEB0B0BB2EB080C5B
:1018500071EB03077BF1000B24BF624639464EEB68
:101860000E0E4FF0000B0018524149414BEB0B0B91
:10187000B2EB080C71EB03077BF1000B24BF62464F
:1018800039464EEB0E0E51EA020718BF46F001062C
:1018900016EB0E7655F1000254F1000103D5BDE8B8
:1018A0008901BDE80088BDE88901BDE80048B61996
:1018B000524141EB0101A3F10103704780807F7E1B
:1018C0007D7C7B7A797877767675747372717170B6
:1018D0006F6E6E6D6C6C6B6A6A6968686766666568
:1018E0006464636362616160605F5F5E5E5D5D5CF6
:1018F0005C5B5B5A5A595958585757565655555567
:101900005454535352525251515050504F4F4F4EC6
:101910004E4D4D4D4C4C4C4B4B4B4A4A4A49494914
:101920004848484747474746464645454544444456
:1019300044434343434242424241414146EA064610
:10194000A3F570534FEA164646EA42564FEAD222B2
:1019500042EA415210B54FEAD121A3F1010300F050
:101960002FF820F0004000F1020C00F0004701EBDE
:1019700000501146BCF5006F40EA070000D210BDD0
:10198000BAF1000F0AD01CB503B44FF004004FF0B9
:1019900004014FF000000FBCBDE810404FF0000103
:1019A000BBF1010FB9BF04484FF0FF3103480021DC
:1019B00040EA070010BD00BFFFFFEF7F0000F07F8F
:1019C000002B9C4630D477002BD01CB54FEA37074C
:1019D00003B44FF010004FF01001BAF1000F06D021
:1019E000BCF1000FDCBF40F0080040F008014FF0F0
:1019F00000000FBCBDE810400BF1010BBBF1010F63
:101A000008BF5FEA170722BF12F1010211F10101BD
:101A10004FF0004143F1000300F0004043EA0000B2
:101A20007047F9D35708D0E746EA064613F1400F4E
:101A30004FEA16461FDD13F1200FDFBF16430A469B
:101A4000002120335B42BED0C3F1200746EA0646A0
:101A500002FA07F74FEA164646EA0706C3F12007DF
:101A600022FA03F201FA07F721FA03F14FF000031B
:101A700042EA0702A7E746EA020646EA06464FEAB6
:101A8000164646EA0106BCBF46EA0646360C4FF04B
:101A900000034FF000024FF0000194E72DE9804C65
:101AA0009A46934670B491E8380007C831EA400C72
:101AB00048BF34EA430C03D5FFF7A4FDFFF780FFCE
:101AC000F0BCBDE8008C2DE9804C9A46934670B47A
:101AD00091E8380007C831EA400C48BF34EA430CAB
:101AE00003D5FFF78FFDFFF729FFF0BCBDE8008CA1
:101AF0002DE9804C9A46934670B491E8380007C8A7
:101B000010F0804F08BF13F0804F03D100F01AF897
:101B1000FFF756FFF0BCBDE8008C2DE9804C9A46DB
:101B2000934670B491E8380007C810F0804F08BFA2
:101B300013F0804F03D100F005F8FFF7FFFEF0BC73
:101B4000BDE8008C20F07F4780EA030023F07F4C43
:101B500007EB0C03A3F57C5300F00040A3F1FE0358
:101B600092F0000F00F0B38095F0000F00F0778046
:101B70002DE901494FEA11404FEA144621EA004895
:101B800000FB06FC24EA064708FB06F607FB08F8FC
:101B900000FB07F718EB06484CEB164C4FEA124BCC
:101BA00018EB07484FEA15464CEB174022EA0B4E5C
:101BB0000BFB06FC25EA06470EFB06F607FB0EFEAE
:101BC0000BFB07F71EEB064E4CEB164C4FF00006D6
:101BD0001EEB074E4CEB174B18EB0B0840F10000C7
:101BE00018EB0E0B58EB000840F100008F1A4FF075
:101BF00000013CBFC943661B14BFB5EB040C0021B8
:101C00003CBFC943F61B4FEA17444EEA8E0E27EA43
:101C100004454FEA1C4704FB07622CEA074C05FB0E
:101C200007F70CFB05F604FB0CFC16EB074642EB32
:101C3000174216EB0C4642EB1C421BEB060658EB18
:101C40000202414146EA9E0601D5BDE80189B61966
:101C5000524141EB0101A3F10103BDE801894FEAC3
:101C600014454FEA114724EA054621EA074C05FBD3
:101C700007F406FB07F70CFB06F105FB0CFC11EB68
:101C8000074144EB17444FEA124711EB0C4144EB78
:101C90001C4422EA074C05FB07F206FB07F70CFB86
:101CA00006F605FB0CFC16EB074642EB174216EB5B
:101CB0000C4642EB1C456A1854F1000148BF7047BE
:101CC000B619524141EB0101A3F10103704795F0B0
:101CD000000F37D04FEA11424FEA144721EA02467B
:101CE00024EA074C02FB07F106FB07F70CFB06F49E
:101CF00002FB0CFC14EB074441EB17414FEA15477C
:101D000014EB0C4441EB1C4125EA074C02FB07F5A0
:101D100006FB07F70CFB06F602FB0CFC16EB07466E
:101D200045EB174516EB0C4645EB1C42121951F1D9
:101D3000000148BF7047B619524141EB0101A3F1C0
:101D4000010370474FEA14454FEA114724EA05465C
:101D500021EA074C05FB07F106FB07F70CFB06F22F
:101D60004FF0000605FB0CFC12EB074241EB17415C
:101D700012EB0C4251EB1C4148BF7047921841EBEB
:101D80000101A3F10103704721B1826842F0010211
:101D9000826003E0826822F001028260704701469F
:101DA00000208A6802F004020AB1012000E000204D
:101DB0007047014600208A6802F008020AB101203B
:101DC00000E000207047000030B5024600200023EC
:101DD00050680F4C20400D790C6844EA05242043DC
:101DE000506090680B4C2040D1E902542C434D794F
:101DF00044EA450420439060D06A20F470000C7CD3
:101E0000641EE4B2234340EA0350D06230BD0000B8
:101E1000FFFEF0FFFDF7F1FF816841F008018160EE
:101E2000704721B1826842F4A002826003E08268B8
:101E300022F4A00282607047816841F00401816051
:101E40007047000030B10749096841F40001054AB4
:101E5000116005E00349096821F40001014A11609D
:101E6000704700000824014010B586B004464FF4C6
:101E7000004000F0CDFD0121084600F0F5FD0121F4
:101E8000042000F0F1FD0121480200F0EDFD4FF4C7
:101E9000A06000F0B1FD042C0AD11020ADF81400B0
:101EA00000208DF8170005A9254800F0C7F814E0B8
:101EB000052C0AD12020ADF8140000208DF8170061
:101EC00005A91F4800F0BAF807E0102C03D1012043
:101ED000FFF7B8FF01E006B010BD002000908DF8BC
:101EE000040001208DF805004FF4602002900020CE
:101EF000039001208DF8100069461248FFF764FF37
:101F000001211048FFF740FF0E48FFF785FF14201E
:101F100000F082F800BF0B48FFF74BFF0028FAD112
:101F20000848FFF789FF00BF0648FFF738FF002881
:101F3000FAD101210348FFF774FF00BFCBE700008F
:101F4000000801400024014000BFFEE72DE9FC47E6
:101F500080460D4691460027002617E018F80640F7
:101F6000AC4200D100257DB9392C01DC302C03DADC
:101F70002E2C01D02D2C04D10E48C455781CC7B28C
:101F800002E0002F00DD03E0701CC6B24E45E5DB29
:101F900000BF084801F066FDCDE9000101F06EFFC9
:101FA000824614230022034903A000F019F850468A
:101FB000BDE8FC877A0000203132330070B503465B
:101FC0000C46002107E05D5C665CAE4201D000205B
:101FD00070BD481CC1B2501E8842F4DC0846F7E7C9
:101FE00030B50446002006E0462A02D1255C0D5497
:101FF00000E00A54401C9842F6DB30BD704730B513
:102000000446254603E04FF47A7000F005F8281ED8
:10201000A5F10105F7D130BD014607E00022064BCE
:102020001A6000BF044A1268642AFBD30A1EA1F199
:102030000101F3D1704700002C0000202DE9F04190
:10204000024600250026002000230024002791F8E6
:1020500003C00CF00F0591F803C00CF0100CBCF19C
:10206000000F03D091F802C04CEA050591F800C0BA
:10207000BCF1000F31D0146800202BE04FF0010CB0
:102080000CFA00F3B1F800C00CEA03069E4220D11E
:1020900083004FF00F0C0CFA03F7BC4305FA03FC66
:1020A0004CEA040491F803C0BCF1280F06D14FF0AC
:1020B000010C0CFA00FCC2F814C00AE091F803C04D
:1020C000BCF1480F05D14FF0010C0CFA00FCC2F82E
:1020D00010C0401C0828D1D31460B1F800C0BCF176
:1020E000FF0F34DD546800202EE000F1080C4FF0A3
:1020F000010808FA0CF3B1F800C00CEA03069E428E
:1021000021D183004FF00F0C0CFA03F7BC4305FA02
:1021100003FC4CEA040491F803C0BCF1280F05D17C
:1021200000F1080C08FA0CF8C2F8148091F803C00A
:10213000BCF1480F07D100F1080C4FF0010808FA74
:102140000CF8C2F81080401C0828CED35460BDE8BB
:10215000F0810000F0B50A4600230024002100258C
:1021600000F00046B6F1004F02D11D4EF16901E0CA
:102170001B4E7168C0F3034583B200F44016B6F5F8
:10218000401F08D121F07061154E766826F0706608
:10219000134F7E6012E000F48016B6F5801F06D162
:1021A000032606FA05F4A14341F0706106E0460DEE
:1021B000360103FA06F6B14341F0706122B1460DD3
:1021C000360103FA06F6314300F00046B6F1004F3F
:1021D00002D1034EF16101E0014E7160F0BD0000DB
:1021E00000000140416170470161704700BFFEE798
:1021F00070B527480068274AB0FBF2F1B1F1807F43
:1022000000D31DE021F07F40401E4FF0E0225061DE
:1022100050170F22002807DA13071D0E1E4B00F07F
:102220000F04241F1D5503E013071C0E1B4B1C54E9
:1022300000BF00204FF0E02290610720106100BF36
:102240004FF4347140F2CF7000F006FE002000F031
:102250000BFD84B22146124800F0D3FF002000F0AD
:1022600003FD84B221460E4800F0CDFF002000F0AF
:10227000FBFC84B221460A4800F0C7FF002000F0B2
:10228000F3FC84B22146064800F0C1FF70BD000097
:1022900034000020A086010018ED00E000E400E01A
:1022A000000800402DE9F04107460C4615461E4641
:1022B0002A2000F047FA384600F026FA284600F0B7
:1022C00023FA2B2000F03EFA204600F01DFA30469B
:1022D00000F01AFA2C2000F035FABDE8F08170B554
:1022E00004460D4616462B46224629462046FFF751
:1022F000D9FF304600F008FA70BD2DE9F0470646D8
:102300000F4614461D46DDF820A0681E83B2601EED
:1023100082B239463046FFF7C5FFB8460EE0B146F7
:1023200006E0504600F0F0F909F101001FFA80F9CB
:10233000A145F6DB08F101001FFA80F8A845EEDBA5
:10234000BDE8F08708B501210C2000F08DFB0121CC
:10235000084600F089FB01211148FFF7FBFE4FF40E
:102360003040ADF8000010208DF8030003208DF8F8
:10237000020069460B48FFF761FE4FF430410948FF
:10238000FFF732FF4FF48060ADF800006946064861
:10239000FFF754FE4FF480610348FFF725FF08BDA7
:1023A00000023000000C01400008014008B5FFF7B2
:1023B000C9FFC820FFF730FE4FF480516748FFF790
:1023C00011FFC820FFF728FE4FF480516348FFF744
:1023D0000BFFC820FFF720FE362000F0B3F978206D
:1023E000FFF71AFE002000F09FF93A2000F0AAF94A
:1023F000052000F099F9B22000F0A4F90C2000F0BB
:1024000093F90C2000F090F9002000F08DF93320B2
:1024100000F08AF9332000F087F9B72000F092F934
:10242000352000F081F9BB2000F08CF9192000F074
:102430007BF9C02000F086F92C2000F075F9C2204D
:1024400000F080F9012000F06FF9C32000F07AF964
:10245000122000F069F9C42000F074F9202000F087
:1024600063F9C62000F06EF90F2000F05DF9D0206E
:1024700000F068F9A42000F057F9A12000F054F909
:10248000E02000F05FF9D02000F04EF9042000F0C9
:102490004BF90D2000F048F9112000F045F9132008
:1024A00000F042F92B2000F03FF93F2000F03CF90A
:1024B000542000F039F94C2000F036F9182000F0D3
:1024C00033F90D2000F030F90B2000F02DF91F201A
:1024D00000F02AF9232000F027F9E12000F032F97A
:1024E000D02000F021F9042000F01EF90C2000F0AB
:1024F0001BF9112000F018F9132000F015F92C2019
:1025000000F012F93F2000F00FF9442000F00CF920
:10251000512000F009F92F2000F006F91F2000F0EB
:1025200003F91F2000F000F9202000F0FDF823201F
:1025300000F0FAF8212000F005F9112000F002F96E
:10254000292000F0FFF87820FFF766FD0020F02337
:102550001A4601460090FFF7D0FE08BD000C01406E
:102560002DE9FF5F07468A4690469B460F9D002057
:1025700002900097284605EBD071C1F3470420462E
:10258000E21704EB5272D2102146E31704EB5373A7
:10259000DB10A4EBC3030BB1012300E000231A44BA
:1025A0006A4392B20192A8F1200000F0FF080AEB02
:1025B0000500401E83B23819401E82B2514638468B
:1025C000FFF770FE00265BE0102D05D12F4800EBD1
:1025D0000810805D039013E0182D07D108EB480028
:1025E0002B4901EB0010805D039009E0202D05D1FF
:1025F000284800EB8810805D039001E0BDE8FF9F54
:102600004FF0000936E01098C8B9012000FA09F02F
:102610000399084018B1584600F076F802E00E9889
:1026200000F072F80298401CC0B20290029890FB31
:10263000F4F104FB1100C8B9002002901DE0012054
:1026400000FA09F00399084020B15A46514638462D
:10265000FFF745FE781C87B20098381AA04205D1D2
:10266000009F0AF101001FFA80FA06E009F101005B
:1026700000F0FF09B9F1080FC5DB00BF701C86B27E
:1026800001988642A0DB00BFB8E70000A04A00081E
:1026900090500008606200082DE9FE4305460F4691
:1026A00016469846DDE90A94102C03D0182C01D068
:1026B000202C0FD1204604EBD071491069438DB214
:1026C00007FB04F087B2F02D00DDF025F02F03DDCD
:1026D000F02701E0BDE8FE8310E00020CDE9009482
:1026E00002903278434639462846FFF739FF2046A4
:1026F00004EBD07105EB61018DB2761C30780028B7
:10270000EBD100BFE6E7000010B504464FF480614E
:102710000448FFF769FD201200F022F8E0B200F053
:102720001FF810BD0008014010B504464FF4806149
:102730000348FFF759FD204600F012F810BD0000D5
:102740000008014010B504464FF480610348FFF7CC
:1027500049FD204600F004F810BD000000080140CB
:1027600070B5044600251BE04FF400510E48FFF7FA
:1027700039FD04F0800028B14FF400410A48FFF70A
:1027800033FD04E04FF400410748FFF72BFD4FF401
:1027900000510548FFF728FD6006040E681CC5B20D
:1027A000082DE1DB70BD0000000C014000BFFEE71A
:1027B0007CB554480068544AB0FBF2F1B1F1807F17
:1027C00001D301201DE021F07F40401E4FF0E022A8
:1027D000506150170F22002807DA13071D0E4B4BCC
:1027E00000F00F04241F1D5503E013071C0E484B77
:1027F0001C5400BF00204FF0E022906107201061C0
:10280000002008B100BFFEE7FFF7D0FD1020FFF762
:102810002BFB4FF4E131022000F04EFD3DA10220E0
:1028200000F062FEFFF7E4FC0021012000F04AFA0C
:102830003D480168022000F045FA0021032000F025
:1028400041FA3A480168042000F03CFA18200021BF
:102850004FF4784336A2CDE900100620FFF71CFFA5
:1028600036A13A48FDF7C2FC1820002147F6FF7355
:10287000364ACDE9001003210220FFF70DFF34A1F5
:102880003248FDF7B3FC182000211F232F4ACDE961
:10289000001004210220FFF7FFFE2448006801F029
:1028A000A1FE044622460B462DA12848FDF79EFCBA
:1028B000182000214FF61F03244ACDE900100721FC
:1028C0000220FFF7E9FE2A491748006801F0B6FE2A
:1028D000064601F087FE044622460B4625A11B480A
:1028E000FDF784FC182000214FF6E073174ACDE96C
:1028F000001008210220FFF7CFFE0120FFF77FFB29
:102900007CBD000034000020A086010018ED00E02E
:1029100000E400E07B436176656E3A52656164795C
:1029200020217D200D0A00001C000020180000203E
:1029300046696E642062616C6C200000583A202069
:102940002020202020202D3E302000005C00002090
:10295000593A20202020202020202D3E3020000029
:10296000582D4E4F573A20252E3266202000000069
:102970000000C841592D4E4F573A20252E3266206F
:10298000200000007047000070B5002100230F22D6
:10299000C47804B3154C246804F4E064C4F5E0641E
:1029A000210AC1F10403CA40447804FA03F184788F
:1029B0001440214309010E4C0678A155047804F017
:1029C0001F050124AC4005786D11AD0005F1E0252F
:1029D000C5F8004109E0047804F01F050124AC406B
:1029E000044D0678761145F8264070BD0CED00E0E8
:1029F00000E400E080E100E002490143024A116086
:102A0000704700000000FA050CED00E07047000080
:102A100001460020034A506820F4404008435060BB
:102A2000704700000010024029B1064AD2690243F3
:102A3000044BDA6104E0034AD2698243014BDA6154
:102A4000704700000010024029B1064A1269024393
:102A5000044B1A6104E0034A12698243014B1A6174
:102A6000704700000010024029B1064A92690243F3
:102A7000044B9A6104E0034A92698243014B9A61D4
:102A8000704700000010024029B1064AD268024394
:102A9000044BDA6004E0034AD2688243014BDA60F7
:102AA000704700000010024030B5002100220024D1
:102AB00000232D4D6D6805F00C0121B1042905D0CE
:102AC000082923D105E0294D056022E0274D056046
:102AD0001FE0254D6D6805F47012234D6D6805F4F7
:102AE0008034022505EB92421CB9214D5543056007
:102AF0000BE01D4D6D6805F400351DB11C4D5543AF
:102B0000056002E0194D5543056002E0174D056070
:102B100000BF00BF144D6D6805F0F0010909154DA7
:102B20006B5C0568DD4045600F4D6D6805F4E06144
:102B3000090A104D6B5C4568DD4085600A4D6D6883
:102B400005F46051C90A0B4D6B5C4568DD40C560FA
:102B5000054D6D6805F44041890B074D6B5CC568F8
:102B6000B5FBF3F5056130BD0010024000127A009C
:102B700000093D004800002058000020704710B5B3
:102B800000F002F810BD00000CB50020019000908C
:102B90003348006840F480303149086000BF304855
:102BA000006800F4003000900198401C01900098EB
:102BB00018B90198B0F57F4FF1D12948006800F4A9
:102BC000003010B10120009001E00020009000983A
:102BD000012843D12348006840F0100021490860D3
:102BE0000846006820F0030008600846006840F0CE
:102BF000020008601A484068194948600846406861
:102C000048600846406840F4806048600846406874
:102C100020F47C1048600846406840F4E8104860A2
:102C20000846006840F08070086000BF0C480068EB
:102C300000F000700028F9D00948406820F0030037
:102C4000074948600846406840F00200486000BFFD
:102C50000348406800F00C000828F9D10CBD0000C2
:102C600000100240002002402DE9F05F82464FF044
:102C7000960B0F49504601F06BFD15D80D49504693
:102C800001F0E5FD10D8504601F0ACFC80460A4A40
:102C90000A4B01F089FA06460022094B01F020F99F
:102CA000044601F015FA83465846BDE8F09F00003F
:102CB0000000B4420000B4C2C3F5285C8FC2F13FEB
:102CC00000C0624070B504460D46012C06D0022CAF
:102CD0000DD0032C14D0042C24D11AE02846FFF781
:102CE000C3FF86B23146114800F08BFA1BE028463C
:102CF000FFF7BAFF86B231460C4800F084FA12E0C2
:102D00002846FFF7B1FF86B23146084800F07DFA49
:102D100009E02846FFF7A8FF86B23146034800F0D5
:102D200076FA00E000BF00BF70BD00000008004060
:102D300000B504480068401C0249086000F004F82F
:102D400000BD00002C00002017488068401C164978
:102D50008860084680681549884224D901201249B4
:102D6000886008464068401C486008468078401CDF
:102D70008870084680783B2815DD0020887008465A
:102D80004078401C4870084640783B280BDD002006
:102D9000487008460078401C0870084600781728DC
:102DA00001DD00200870704720000020A08601008F
:102DB00010B51348006840F001001149086008464A
:102DC0004068104908400E494860084600680E49AE
:102DD00008400B4908600846006820F4802008601D
:102DE0000846406820F4FE0048604FF41F008860E9
:102DF000FFF7C5FE4FF000600449086010BD0000F9
:102E0000001002400000FFF8FFFFF6FE08ED00E0B2
:102E10004FF08040008A4FF08040008A20F001008F
:102E20004FF08041088270470448008803480088BA
:102E300020F00100014908807047000010040040A4
:102E4000044800880348008820F0010001490880F8
:102E5000704700001008004030B589B005460C46A8
:102E600001210420FFF7E0FD01210820FFF7FCFD10
:102E700001210846FFF7F8FD4FF47070ADF820000F
:102E800018208DF8230003208DF8220008A922487D
:102E9000FFF7D4F8ADF81850ADF814400020ADF8A5
:102EA0001A00ADF8160005A91C4800F0B3F970200F
:102EB000ADF804000120ADF806000220ADF80C00CA
:102EC00001A9164800F042F80821144800F08AF8D9
:102ED00001A9124800F090F80821104800F0DEF82F
:102EE00001A90E4800F0E8F808210C4800F034F978
:102EF00001A90A4800F03AF90821084800F074F9DD
:102F000000220121054800F017F80121034800F0D4
:102F100007F809B030BD0000000C01400008004077
:102F200021B1028842F00102028004E002884FF6DB
:102F3000FE731A40028070471AB183890B43838164
:102F400002E083898B4383817047000070B50024C1
:102F500000220023058C4FF6FE7635400584028C56
:102F60008388048B4FF68F752C40B51E2C400D883E
:102F70002C43751E2A400D892A434D882A43144D3F
:102F8000A8420BD0134DA84208D0134DA84205D03B
:102F9000124DA84202D0124DA84213D14FF6F77538
:102FA0002A404D892A434FF6FB752A408D882A43D3
:102FB0004FF6FF652B404FF6FF552B408D892B4375
:102FC000CD892B4383800483CD888586028470BDA0
:102FD000002C014000340140004001400044014009
:102FE000004801400A460021018B4FF6F773194053
:102FF000114301837047000070B5002400220023B4
:10300000058C4FF6EF7635400584028C8388048B5F
:1030100048F6FF752C404FF6FF452C400D884FF6C3
:10302000FF7606EA05252C434FF6DF752A400D8909
:1030300006EA05152A434D8806EA05152A43154D6B
:10304000A84202D0144DA8421DD14FF67F752A40E8
:103050004D894FF6FF7606EA05152A434FF6BF75F0
:103060002A408D8806EA05152A434FF6FF352B4086
:103070004FF2FF752B408D8906EA85052B43CD89DC
:1030800006EA85052B4383800483CD880587028467
:1030900070BD0000002C0140003401400A460021B0
:1030A000018B4FF2FF7319404FF6FF7303EA0223BF
:1030B000194301837047000070B5002400220023EB
:1030C000058C4FF6FF6635400584028C8388848B1F
:1030D0004FF68F752C404FF6FC752C400D882C4315
:1030E0004FF6FF552A400D894FF6FF7606EA052573
:1030F0002A434D8806EA05252A43154DA84202D0E9
:10310000144DA8421DD14FF2FF752A404D894FF64C
:10311000FF7606EA05252A434FF6FF352A408D88BB
:1031200006EA05252A434EF6FF752B404DF6FF753E
:103130002B408D8906EA05152B43CD8906EA051536
:103140002B4383808483CD888587028470BD0000F3
:10315000002C0140003401400A460021818B4FF6CB
:10316000F7731940114381837047000070B5002246
:1031700000230024058C4EF6FF7635400584038C31
:103180008488828B48F6FF752A404FF6FF452A4017
:103190000D884FF6FF7606EA05252A434DF6FF75A2
:1031A0002B400D8906EA05352B434D8806EA053587
:1031B0002B430B4DA84202D00A4DA84208D14BF632
:1031C000FF752C408D894FF6FF7606EA85152C4356
:1031D00084808283CD88A0F84050038470BD0000B5
:1031E000002C0140003401400A460021818B4FF23F
:1031F000FF7319404FF6FF7303EA022319438183DB
:103200007047818670470187704781877047A0F8B3
:1032100040107047002202881D4B98420ED01D4B73
:1032200098420BD0B0F1804F08D01B4B984205D08C
:103230001A4B984202D01A4B984204D14FF68F7322
:103240001A404B881A43174B984207D0164B9842A6
:1032500004D04FF6FF431A40CB881A4302808B8874
:1032600083850B8803850A4B98420BD0094B984203
:1032700008D00E4B984205D00D4B984202D00D4B12
:10328000984201D10B7A03860123838270470000A4
:10329000002C0140003401400004004000080040C0
:1032A000000C0040001000400014004000400140AD
:1032B000004401400048014030B587B004460D4647
:1032C0004FF4A060FFF798FB01210846FFF7CCFB05
:1032D000012C4FD101210820FFF7C6FB01218803F3
:1032E000FFF7C2FB01210420FEF734FF764800F00F
:1032F000FDF94020ADF8180003208DF81A001820C1
:103300008DF81B0006A97148FEF798FE8020ADF8E5
:10331000180048208DF81B0006A96C48FEF78EFEA9
:1033200002950020ADF814000C20ADF8120000202A
:10333000ADF81000ADF80E00ADF80C0002A962481F
:1033400000F07EFA012240F225515F4800F053FA66
:1033500001215D4800F0BDF925208DF80400012011
:103360008DF805008DF806008DF8070001A8FFF71D
:103370000BFBA7E0022C50D101210420FFF774FBC6
:1033800001214804FFF750FB0420ADF81800182075
:103390008DF81B0003208DF81A0006A94C48FEF793
:1033A0004DFE0820ADF8180004208DF81B0006A97A
:1033B0004748FEF743FE02950020ADF80C00ADF83B
:1033C0000E00ADF81000ADF814000C20ADF812009E
:1033D00002A9404800F034FA4FF4A060FFF70CFB5C
:1033E00026208DF8040000208DF805008DF80600D9
:1033F00001208DF8070001A8FFF7C6FA012240F26C
:103400002551344800F0F7F90121324800F061F904
:103410000021314880F8921054E0032C52D1012150
:103420001020FFF721FB01218804FFF7FDFA01219D
:103430002A48FEF78FFE4FF48060ADF81800182080
:103440008DF81B0003208DF81A0006A92448FEF70A
:10345000F5FD4FF40060ADF8180004208DF81B0056
:1034600006A91F48FEF7EAFD02950020ADF80C0002
:10347000ADF80E00ADF81000ADF814000C20ADF85A
:10348000120002A9174800F0DBF94FF4A060FFF723
:10349000B3FA27208DF8040001208DF805000220E2
:1034A0008DF8060001208DF8070001A8FFF76CFADF
:1034B000012240F225510B4800F09DF901210948F5
:1034C00000F007F907B030BD00380140000C0140A2
:1034D00000080140004400408E000020100014004D
:1034E000001001400048004070B505460C46002021
:1034F0002549086040E0012D04D0022D10D0032D95
:103500002AD11BE000BF8021204800F03DF90028AF
:10351000F9D01D480068215C1C4800F002FA1CE04C
:1035200000BF80211A4800F02FF90028F9D0164872
:103530000068215C164800F0F4F90EE000BF80211D
:10354000144800F021F90028F9D00F480068215CE8
:10355000104800F0E6F900E000BF00BF0A4800682C
:10356000205C18B108480068205C00B970BD0648AE
:103570000068401C0449086003480068C0F11E0050
:103580000028B8D100BFF1E730000020003801402A
:10359000004400400048004010B540F22551154855
:1035A00000F0FFF8012823D140F22551114800F026
:1035B00087F8114890F89100D0B90E4800F0ACF9A6
:1035C000C4B20D4890F8971090F89700401CC2B212
:1035D000094880F89720183044540A2C01D07D2CDB
:1035E00006D10121044880F89110002180F897103D
:1035F00010BD0000003801408E00002010B540F2E0
:103600002551154800F0CDF820B340F2255112485D
:1036100000F056F8114890F89200D8B90E4800F022
:103620007BF9C4B20D4890F8981090F89800401CAF
:10363000C2B20A4880F89820303044541CB17D2C26
:1036400001D00A2C06D10121044880F892100021F3
:1036500080F8981010BD0000004400408E0000204B
:1036600010B540F22551144800F09BF8012822D1F2
:1036700040F22551104800F023F8104890F89300CC
:10368000C8B90D4800F048F9C4B20C4890F8991038
:1036900090F89900401CC2B2084880F89920483040
:1036A00044540CB10A2C06D10121044880F893102F
:1036B000002180F8991010BD004800408E000020C5
:1036C00001F40072B2F5007F00D100BFCA4302804E
:1036D000704721B1828942F40052828104E08289DC
:1036E0004DF6FF731A4082817047000010B5044602
:1036F0002048844209D101218803FFF7C5F9002140
:103700004FF48040FFF7C0F932E01B48844209D1F2
:1037100001214804FFF798F900214FF40030FFF72A
:1037200093F925E01548844209D101218804FFF767
:103730008BF900214FF48020FFF786F918E010483C
:10374000844209D10121C804FFF77EF900214FF41A
:103750000020FFF779F90BE00A48844208D10121E3
:103760000805FFF771F900214FF48010FFF76CF99D
:1037700010BD0000003801400044004000480040F7
:10378000004C00400050004002460020B1F5007F90
:1037900000D100BF13880B400BB1012000E00020D6
:1037A000704770B50246002400230025002040F633
:1037B0006A16B14200D100BFC1F3421501F01F03E8
:1037C000012606FA03F3012D02D19689334006E063
:1037D000022D02D1168A334001E0968A33400C1242
:1037E000012606FA04F41688344013B10CB1012006
:1037F00000E0002070BDF0B503460024002600253F
:10380000002040F66A17B94200D100BF1846C1F344
:10381000421401F01F06012707FA06F5012C01D119
:103820000C3004E0022C01D1103000E014301AB149
:1038300007682F43076002E00768AF430760F0BDE9
:103840002DE9F04786B005460E460024A24600BF8B
:10385000A1460027B08900B100BF2F462C8A4CF644
:10386000FF700440F08804432C82AC894EF6F310BC
:103870000440B08831890843718908430443AC810E
:10388000AC8A4FF6FF400440B0890443AC8201A8E3
:10389000FFF70AF91F48874202D1DDF810A001E0C6
:1038A000DDF80CA0A88900F4004040B10AEBCA0082
:1038B00000EB0A1031684900B0FBF1F807E00AEBB1
:1038C000CA0000EB0A1031688900B0FBF1F86420EF
:1038D000B8FBF0F004012009642101FB1089A889DC
:1038E00000F4004040B1322000EBC900B0FBF1F021
:1038F00000F00700044308E0322000EB09106421C7
:10390000B0FBF1F000F00F0004432C8106B0BDE8DD
:10391000F08700000038014001468888C0F30800A5
:103920007047C1F308028280704700BFFEE749007C
:1039300050EAC12018BF04204A0D18BF40F0010012
:1039400040F2FF72B2EB515F08BF40F00200012865
:1039500008BF0520704740F2013200204FF0E041DF
:1039600001F052B8024A0020110701F04DB80000E2
:1039700001FDFFFF10B50446D1E9000100F002F897
:10398000206010BDF8B504460D466A4600F080F888
:1039900000987E30009000281EDC0022134620464E
:1039A000294600F059FB17D0002140F608004FF0DF
:1039B000000006462046294600F060FA044640F61C
:1039C000080006EA00014FF0000034F0004004BF98
:1039D0000220FCF7AEFC29E00098FF2828DB00213C
:1039E00008464FF0000000F440060022134620462F
:1039F000294600F0D7FC8CBF002501250220FCF7EA
:103A000098FC4FF0FF4446B1002D0CBF4FF400006E
:103A10004FF48000B04218BF084C042108464FF014
:103A20000000002D04BF84F00040F8BD2046F8BD22
:103A300020462946BDE8F84000F020BAFFFF7F7F0E
:103A400010B504460A46D4E90003194600F04CF8C4
:103A5000C4E9000110BD30380A2801D201207047A6
:103A60000020704730B583B00446FCF75DFC054686
:103A70000020CDE90000024621466846FCF7AAFE78
:103A80002846FCF756FCDDE9000103B030BD00001C
:103A900010B5144600222260114A21F000439342DF
:103AA000A8BF10BD53EA000208BF10BDB3F5801FC8
:103AB000A8BF226807DA362200F0A6FF6FF03502B1
:103AC00021F000432260DFF81CC06FF31E510CEBA5
:103AD00023531A4441F0FF5141F00051226010BDC0
:103AE0000000F07F02FCFFFF2DE9F04106460C4686
:103AF00040F2FF75174635EA14502BD000221346CA
:103B0000304600F0A9FA25D03A463046214600F06A
:103B10007BFF06460C4635EA145010D000221346AF
:103B2000304600F099FA15D10220FCF702FCFFF7AD
:103B300019FF0A46214662F31E01BDE8F08102200A
:103B4000FCF7F7FBFFF707FF0A46214662F31E0169
:103B5000BDE8F08130462146BDE8F0811CB5FEF796
:103B600027FE01210846FEF77FFF01218E48FEF760
:103B7000F1FA17E18D4890F8920000287ED08B482A
:103B800090F830007B287AD14FF0000B18223E21AC
:103B900086483030FEF7DAF98346584600F0BCFD1F
:103BA0008246BAF1000001DB014600E041428A464C
:103BB0000E227E4930317EA0FEF700FA002839D06F
:103BC000BAF1320F19DD584600F00CFD7C4A7D4BEE
:103BD000CDE9000100F0E8FA06460F467A48006891
:103BE00000F000FD804632463B4600F011FC0446E2
:103BF00000F044F9744908605EE0BAF10A0F5BDD39
:103C0000584600F0EFFC714A714BCDE9000100F01D
:103C1000CBFA06460F466C48006800F0E3FC80468D
:103C200032463B4600F0F4FB044600F027F96649B3
:103C3000086041E00E225D49303166A0FEF7BEF912
:103C4000D0B3BAF11E0F1BDD584600F0CBFC5F4A23
:103C50005F4BCDE9000100F0A7FA06460F46614828
:103C6000006800F0BFFC804632463B4600F0D0FBC7
:103C7000044600F003F95B4908601DE02CE01CE0FD
:103C8000BAF10A0F18DD584600F0ACFC564A574B03
:103C9000CDE9000100F088FA04460D46514800685D
:103CA00000F0A0FC064622462B4600F0B1FB804601
:103CB00000F0E4F84B49086003E04DA10220FFF753
:103CC00013FC18230022394930314DA0FEF788F942
:103CD0000021364880F892101E230022494948A04E
:103CE000FEF77EF948493F48006800F0B0FD03D276
:103CF00045483C49086008E044493A48006800F0FB
:103D000027FD02D241483749086041492E480068E2
:103D100000F09DFD03D23E482B49086008E03D4974
:103D20002948006800F014FD02D23A48264908608C
:103D30002C4801680220FEF7C5FF234801680420D3
:103D4000FEF7C0FF2048006800F04CFC0446224605
:103D50000B4631A12B48FCF749FA182000214FF6F9
:103D60001F03284ACDE9001007210920FEF794FC23
:103D70002B491C48006800F061FC064600F032FC4C
:103D8000044622460B4624A11E48FCF72FFA1820B1
:103D900000214FF6E0731B4ACDE9001008210920ED
:103DA000FEF77AFCE6E60000000230008E000020FC
:103DB0007B563833313A53706163655F7800000099
:103DC0009A9999999999A93F18000020B81E85EBF6
:103DD00051B89E3F7B563833313A53706163655F0B
:103DE000790000001C0000207B14AE47E17A843F7C
:103DF0007B6572726F722021207D0D0A0000000029
:103E0000313233005C0000200000A040000048C2B6
:103E10000000B4420000B4C2252E3266202000000B
:103E20000000344210B500290AD00878002807D0D5
:103E300005487844FDF7E2F8002801D0002010BDC5
:103E40000248784410BD0000AE400000A6400000CB
:103E500010B500290AD00878002807D00548784412
:103E6000FDF7CCF8002801D0002010BD02487844AE
:103E700010BD00009E4000009640000021F000426E
:103E8000A2F16052B2F5801F01F0004328BFD2F1C9
:103E90007F6C0BD95FEA001C43EAC20242EB507010
:103EA00018BF704728BF20F001007047B2F5801F8F
:103EB000BCBF184670474FEA410C1CF5001F02D2E8
:103EC000084600F0BFBC70B500F018FA0000008989
:103ED000FFF7F6BF4FF00040A0F5800070470000EC
:103EE00010B591EA030F48BF83F0004300F19882B8
:103EF000841A71EB030C05D2121943EB0C03001B5F
:103F000061EB0C01DFF824E14FEA1154A4EB135CE0
:103F10001EEA430F18BF9EEA445F73D023EA0E03E4
:103F2000DCF1200E21EA045143F4801332D322FA4B
:103F30000CFE10EB0E0023FA0CFE41EB0E01CCF14F
:103F4000200E03FA0EFE10EB0E0051F10001B1F548
:103F5000801FCCF1200E32D201EB045112FA0EF286
:103F6000BDE8104058BF7047401C38BF5FEA4202AE
:103F700018BF7047002814BF20F0010041F1000174
:103F80004FEA410313F5001F38BF7047A1F1C0414C
:103F900000F002BA012A43EB0302ACF1200CDCF181
:103FA0001F0E32BF4FF0000E23FA0CF310EB03008C
:103FB00041EB0451B4EB115FD0D0A1EB045101F5FA
:103FC000801149085FEA300001EB04510ED350F133
:103FD000000038BF12FA0EFE08D1BDE81040C9E754
:103FE000401C38BF5FEA4202CAD1C3E7BDE81040B7
:103FF0004FEA410313F5001F38BF7047A1F1C041DC
:1040000000F0CAB99EEA445F08D011EA5E0FBDE82D
:10401000104004BF01F0004100207047BDE810408F
:1040200070B500F06BF900BF64FBBE3E0000E0FF1E
:1040300002494FF0000000F0B5BC00BF0000F87F5F
:10404000491058BFC1F140415B1058BFC3F1404314
:104050008B42EFF30080704751EA030C17D41CF534
:10406000801F58BFBCF5801F00F10680994218BF21
:10407000704708BF9042704707D711F5801F58BF9F
:1040800013F5801F19D499427047894270471CF577
:10409000801F08D5BCF5801FF7D58B4218BF70472D
:1040A00008BF824270474FF4001C1CEB410F38BF21
:1040B0001CEB430F01D28B42704770B500F01EF924
:1040C000922449004FF000514FF08053FFF7B8BFE2
:1040D0004FEA41034FEA5353A3F58063D3F11E0324
:1040E000C8BFD3F1210C0CDD4FF0004242EAC122DF
:1040F00042EA505232FA03FC8CEAE17CACEBE1700C
:104100007047102BC4BF0020704703F5787CBCF1CA
:10411000FF3F04D06FF0004282EA2100704770B583
:1041200000F0ECF84992248000207047F2E700008C
:1041300051EA030C17D41CF5801F58BFBCF5801F33
:1041400000F10680994218BF704708BF904270473F
:1041500007D711F5801F58BF13F5801F19D4994256
:104160007047894270471CF5801F08D5BCF5801F39
:10417000F7D58B4218BF704708BF824270474FF493
:10418000001C1CEB410F38BF1CEB430F01D28B42CC
:10419000704770B500F0B2F8922449004FF000511A
:1041A0004FF08053FFF74CBFDFF848C170B51CEAF1
:1041B000111E1EBF1CEA13159EEA0C0F95EA0C0F88
:1041C00000F06F8081EA030423EA4C134EEAD47EA8
:1041D00021EA4C1141F4801143F48013AE44A1FB59
:1041E000024CA0FB0365AEF17F7E361955EB0C0542
:1041F000A1FB034C4CF10003A0FB021C16EB0C06C8
:10420000654153F10003094218BF46F0010613F45B
:10421000007F0BD14FEA03314FEA0530340341EA06
:10422000155140EA16506FF003020AE04FEAC3212D
:104230004FEAC520F40241EA555140EA56506FF06A
:10424000020202EB2E4201EB025585EACE710AD042
:104250005FEA440C18BF24F0004450F1000041F123
:10426000000120EAD47040F2FE7C624500D270BDAD
:10427000A84214BF4FF080444FF04044002E08BFC6
:104280000024BEF1806FA8BFA1F1C041BDE870401D
:1042900080F282804FF0000001F1C04101F0004146
:1042A00070479EEA0C0F0CEA131518BF95EA0C0F25
:1042B00006D04FF0000081EA030E0EF0004170BD01
:1042C00000F01CF88900013E00F007B800F009B8C2
:1042D0004FEA430C5FEA5C5C08D081EA030100F01E
:1042E0005BB84FEA410C5FEA5C5CF6D14FF000002E
:1042F000014970470000FF070000F87F0EF1020E31
:104300002EF0030E5EF8046B364205D4012A43EB0F
:10431000030515F5001F12D8012841EB010C1CF50F
:10432000001F0CD80ED14FEAD17C15F5001F0CEB05
:104330004C0C0CF1020C08BF4CEBD37C04E04FF0AA
:10434000080C01E04FEAD37C0CEB4C0526FA05F68D
:1043500006F00706B6F1040C06D20EEB860CBDE89B
:1043600070404CF0010C6047DFE80CF0090B0202D2
:104370004FF000414FF00000A1F5002170BD19463B
:104380001046012851EB010418BFD4F5001484BF76
:10439000002001F0004170BD0808A0F500114FEAAF
:1043A0003101704753EA010C17D41CF5801F58BF28
:1043B000BCF5801F00F106808B4218BF704708BF14
:1043C0008242704707D713F5801F58BF11F5801F31
:1043D00019D48B4270479B4270471CF5801F08D54B
:1043E000BCF5801FF7D5994218BF704708BF9042AF
:1043F00070474FF4001C1CEB430F38BF1CEB410F00
:1044000001D2994270470FB40CBC03BCFFF7C1BE88
:1044100010B591EA030F48BF83F000433FF568AD44
:10442000841A71EB030C07D212198CF0004C43EB89
:104430000C03001B61EB0C01DFF8A4E14FEA1154FF
:10444000A4EB135C1EEA430F18BF9EEA445F00F022
:10445000B08023EA6E03524221EA0451C3EB6E039B
:1044600038BF5B1EDCF1200E25D322FA0CFE10EBC8
:104470000E0043FA0CFE41EB0E01CCF1200E03FAC4
:104480000EFE10EB0E0051F10001CCF1200E29D4EC
:1044900012FA0EF201EB0451BDE8104058BF70470C
:1044A000401C1CBFB2F1004F704700280CBF491CD4
:1044B00020F00100704712EB020E43EB030218BF1D
:1044C0004FF0010E4EEA4202ACF1200CDCF11E0E60
:1044D00054D943FA0CFE10EB0E0051F1FF31CCF130
:1044E0001E0ED5D50EF1010E12FA0EFE404141EB23
:1044F000010101EB445C5FEA5C5C10D910EBDE70FB
:1045000001EB045138BFBEF1004FBDE8104018BFA9
:10451000704700280CBF491C20F00100704730D2C2
:104520004FEAD42C11F5001124F400641BD0B1FA29
:1045300081F20B3AA41AA41ED2F12003914030FA62
:1045400003F31943904001EBCC71002C01EB0451B3
:10455000BDE81040A8BF704701F1C0414FF0000016
:1045600001F000417047B0FA80F310FA03F100D176
:1045700010BDE41A173C4805C90AE4E701EB0451F1
:1045800010BD491001EB0451BDE810404FEA300066
:1045900002E04FF0000170474A0008BF0042F8D027
:1045A000B2F5001F28BF704701F000414FF0000036
:1045B00070479EEA445F07D011EA5E0FBDE81040E5
:1045C00004BF002100207047BDE8104070B5FFF720
:1045D00095FE00BF40DFF63E83F000411046704775
:1045E0000000E0FF43004FEAD30C4FEA3C0C43408D
:1045F0001FBF40070CF1605113F0FE4F70471CF0D5
:10460000006F03D100200CF0004170470CF0004314
:1046100043EA507010B540EACC0000F0CDF800BF7E
:10462000000000924FEA0001FFF7B6BE4FF00041D4
:104630004FF00000A1F500217047000090EA010F43
:1046400048BF81F0004100F13A81421A3CBF801A14
:1046500089184FEAD0524FF07F4C1CEA410FA2EB71
:10466000D15318BF9CEA026F00F03B804FF0004C22
:104670004CEA00204CEA012121FA03FC10EB0C0C5F
:104680001ED202F1FF325FEA1C2040EBC25038BF5D
:1046900070471CF07F0F4FEA400C18BFBCF17F4FF2
:1046A00038BF7047C3F12003994008BF20F00100D4
:1046B000BCF17F4F38BF7047A0F1C04000F0C2B8D6
:1046C0004FEA3C00000A40EBC25028BF1CF0FF0F2D
:1046D0004FEA400CE6D018BFBCF17F4F38BF70479F
:1046E000EAE79CEA026F05D010EA5C0F08BF00F011
:1046F0000040704710B500F05FF800BF64FBBE3E9D
:10470000401058BFC0F14040491058BFC1F140416E
:104710008142EFF30080704741000B0ED3F19E02FF
:1047200008D950F400034FEA032323FA02F048BFEC
:104730004042704710B500F03FF800BF4992248016
:10474000002070476FF0004282EA200070470000AE
:1047500050EA010C00F113801CF5000F58BFBCF5A6
:10476000000F01D48842704707D710F5000F58BFDB
:1047700011F5000F15D488427047894270471CF527
:10478000000F04D5BCF5000FF7D5814270474FF0FC
:10479000807C1CEB400F38BF1CEB410F01D28142E3
:1047A000704710B500F008F8922449004FF000500F
:1047B0004FF08051FFF7A4BF0EF1020E2EF0030E52
:1047C0005EF8044B244204D44FEA4102B2F17F4F19
:1047D00011D84FEA4003B3F17F4F0CD80ED14FEA06
:1047E000D07CB2F17F4F0CEB4C0C0CF1020C08BFEB
:1047F0004CEBD17C04E04FF0080C01E04FEAD17C97
:104800000CEB4C0324FA03F404F00704B4F1040C99
:1048100006D20EEB840CBDE810404CF0010C604752
:10482000DFE80CF0070802024FF00040A0F580001E
:1048300010BD0846420018BFD2F1807288BF00F058
:10484000004010BDFF2141EAD050C005704751EA39
:10485000000C00F113801CF5000F58BFBCF5000FD1
:1048600001D48142704707D711F5000F58BF10F5EA
:10487000000F15D481427047894270471CF5000F24
:1048800004D5BCF5000FF7D5884270474FF0807C07
:104890001CEB410F38BF1CEB400F01D28842704720
:1048A00080EA010081EA000180EA0100FFF779BF98
:1048B00090EA010F48BF81F000413FF5C6AE421AB1
:1048C00004D882F00042A0EB020011444FEAD0521B
:1048D0004FF07F4C1CEA410FA2EBD15318BF9CEA6A
:1048E000026F4AD04FF0004C4CEA00204CEA012104
:1048F00021FA03FCB0EB0C0C0FD412F0FE0F36D0F3
:104900005FEA4C001DD5001240EBC25038BF704723
:104910001CF03F0F18BF70470BE0A2F101025FEAE5
:104920001C2040EBC25038BF70471CF07F0F18BFEF
:104930007047C3F12003994014BF401E20F00100CE
:10494000704780084FEA122308BF7047B0FA80FC16
:10495000A2EB0C02CCF1280C60FA0CF093EA122FB7
:1049600004BF00EBC25070474FEAC3707047130A90
:104970005FEADC1008BF7047F6E79CEA026F04D0DC
:1049800010EA5C0F08BF0020704710B5FFF714FF56
:1049900040DFF63E81F0004070474FF00000704766
:1049A000FBF7A6BD0CF00F03092B08BF082000F091
:1049B0005F800A2B0BD0082B18BF704708BF1CF074
:1049C000400F0AD04FF000004FF0000170471CF07C
:1049D000400F18BF4FF0004070471CF0100F08D078
:1049E00020F0704300F07F4242EAD3014FEA437067
:1049F000704700F0604021F07F4242EA000201F07F
:104A00007F4040EA727070474FF0FF0C4CF4E06C4E
:104A10001CEA11531CBF9CEA030C9445C2BFDA4246
:104A200001EB02517047002B0DD0BCF1000F0FD0ED
:104A3000002A01F00041A4BF41F0E04141F07F6154
:104A40004FF00000704701F000414FF00000704748
:104A500050EA01334FF09B0C18BF4CF0806C7FF490
:104A6000E7AA7047FCF76AB9FCF708BBFCF796BCED
:104A70001CF4801F11D01CF4E02F03D06FEACC315E
:104A8000490070474FF04050EFF3008222F070422F
:104A900042EA000282F3008870474FF0000070473E
:104AA0000000000000000000000000000000000006
:104AB000000000080808080808080000181800008E
:104AC00000486C24120000000000000000000000FC
:104AD0000000002424247F1212127F121212000000
:104AE0000000081C2A2A0A0C1828282A2A1C080850
:104AF00000000022251515152A5854545422000090
:104B00000000000C1212120A76252911916E000085
:104B10000006060403000000000000000000000082
:104B20000040201010080808080808101020400055
:104B300000020408081010101010100808040200E9
:104B40000000000008086B1C1C6B08080000000037
:104B500000000000080808087F0808080800000096
:104B60000000000000000000000000000606040332
:104B70000000000000000000FE0000000000000037
:104B80000000000000000000000000000606000019
:104B90000000804040202010100808040402020099
:104BA00000000018244242424242424224180000BF
:104BB000000000080E08080808080808083E000061
:104BC0000000003C4242422020100804427E0000C7
:104BD0000000003C4242201820404042221C0000BD
:104BE000000000203028242422227E20207800008B
:104BF0000000007E0202021A26404042221C0000F1
:104C0000000000382402021A264242422418000002
:104C10000000007E22221010080808080808000082
:104C20000000003C4242422418244242423C000020
:104C3000000000182442424264584040241C0000F6
:104C40000000000000001818000000001818000004
:104C50000000000000000008000000000008080438
:104C6000000000402010080402040810204000004A
:104C70000000000000007F0000007F000000000036
:104C80000000000204081020402010080402000068
:104C90000000003C4242464020101000181800005E
:104CA0000000001C225A555555552D42221C00006B
:104CB0000000000808181414243C224242E70000B7
:104CC0000000001F2222221E22424242221F000018
:104CD0000000007C4242010101010142221C00004F
:104CE0000000001F2242424242424242221F000074
:104CF0000000003F4212121E12120242423F000008
:104D00000000003F4212121E1212020202070000AF
:104D10000000003C2222010101712122221C00001E
:104D2000000000E7424242427E42424242E7000027
:104D30000000003E0808080808080808083E0000AF
:104D40000000007C10101010101010101010110F27
:104D50000000007722120A0E0A12122222770000A7
:104D6000000000070202020202020202427F00006B
:104D700000000077363636362A2A2A2A2A6B0000A7
:104D8000000000E346464A4A52525262624700001F
:104D90000000001C2241414141414141221C0000D0
:104DA0000000003F424242423E020202020700006F
:104DB0000000001C2241414141414D53321C600022
:104DC0000000003F4242423E1212222242C700002F
:104DD0000000007C4242020418204042423E000093
:104DE0000000007F4908080808080808081C00009F
:104DF000000000E74242424242424242423C00003E
:104E0000000000E74242222424141418080800007D
:104E10000000006B494949495555362222220000BD
:104E2000000000E7422424181818242442E7000058
:104E3000000000772222141408080808081C00004B
:104E40000000007E2120101008040442423F0000B0
:104E50000078080808080808080808080808780002
:104E6000000002020404080808101020202040401E
:104E7000001E1010101010101010101010101E0036
:104E800000384400000000000000000000000000A6
:104E9000000000000000000000000000000000FF13
:104EA00000060800000000000000000000000000F4
:104EB000000000000000003C4278444242FC000038
:104EC000000000030202021A26424242261A000093
:104ED00000000000000000384402020244380000D4
:104EE00000000060404040784442424264D80000E4
:104EF000000000000000003C427E0202423C000034
:104F0000000000F08808087E08080808083E000035
:104F1000000000000000007C22221C023C42423CB7
:104F2000000000030202023A4642424242E7000009
:104F30000000000C0C00000E08080808083E0000E5
:104F40000000003030000038202020202020221EC9
:104F50000000000302020272120A161222770000F9
:104F60000000000E0808080808080808083E0000AD
:104F7000000000000000007F9292929292B7000021
:104F8000000000000000003B4642424242E70000B1
:104F9000000000000000003C42424242423C00004F
:104FA000000000000000001B26424242221E0207B1
:104FB000000000000000007844424242447840E093
:104FC00000000000000000774C040404041F0000EF
:104FD000000000000000007C42023C40423E000015
:104FE000000000000008083E08080808083000001B
:104FF00000000000000000634242424262DC000008
:1050000000000000000000E742242414080800000B
:1050100000000000000000EB494955552222000025
:10502000000000000000007624181818246E00000C
:1050300000000000000000E74224241418080807BC
:10504000000000000000007E22100808447E0000DE
:1050500000C0202020202010202020202020C00060
:105060001010101010101010101010101010101040
:1050700000060808080808100808080808080600BC
:105080000C32C20000000000000000000000000020
:105090000000000000000000000000000000000010
:1050A0000000000000000000000000000000000000
:1050B00000000000000000000000000000000000F0
:1050C0000000000000000000600060006000600060
:1050D0006000600060004000200020002000000010
:1050E00000000000600060006000000000000000A0
:1050F000000000006006600630039801880044004C
:10510000000000000000000000000000000000009F
:10511000000000000000000000000000000000008F
:105120000000000000000000100210021002100237
:10513000FE07FE0708020801080108010801FE0732
:10514000FE07040104010401040100000000000046
:1051500000000000000040004000F00158034C0334
:10516000CC034C0058007000E000C001C0014003B7
:105170004C035C034C034801F00040004000000079
:1051800000000000000000000E010A0191009100E3
:105190009100510051003A00AE03A00250045004A7
:1051A000480448044804840284030000000000000E
:1051B000000000000000000038006C006C006C0073
:1051C0006C006C002C0098071C011A01330133019C
:1051D0006301E300C308C6093C07000000000000AB
:1051E000000000000C001C0010001000080004006B
:1051F00000000000000000000000000000000000AF
:10520000000000000000000000000000000000009E
:105210000000000000040002000180008000400047
:10522000400020002000200020002000200020005E
:1052300040004000800080000001000200040000E7
:105240000000000002000400080010001000200010
:10525000200040004000400040004000400040006E
:1052600020002000100010000800040002000000D0
:105270000000000000000000000000004000C0002E
:105280004000460C4E0FD001F0015E0F460C40006E
:10529000400040000000000000000000000000008E
:1052A00000000000000000000000000000004000BE
:1052B0004000400040004000FE0F40004000400021
:1052C000400040000000000000000000000000005E
:1052D00000000000000000000000000000000000CE
:1052E00000000000000000000000000000000000BE
:1052F000000000000C001C0010001000080004005A
:10530000000000000000000000000000000000009D
:105310000000000000000000FE0700000000000088
:10532000000000000000000000000000000000007D
:10533000000000000000000000000000000000006D
:10534000000000000000000000000000000000005D
:10535000000000001C001C001C00000000000000F9
:10536000000000000004000600020003000100012C
:1053700080008000400040006000200020001000FD
:105380001000080008000C000400060002000000E5
:1053900000000000000000000000F00098010C0375
:1053A0000C0306060606060606060606060606069A
:1053B00006060C030C039801F0000000000000003A
:1053C0000000000000000000000040007C006000C1
:1053D00060006000600060006000600060006000CD
:1053E0006000600060006000FC030000000000003E
:1053F00000000000000000000000F800840102032B
:1054000006030603000300018001C00060002000C5
:105410001000080204020602FE0300000000000063
:10542000000000000000000000007800C6008601B7
:10543000860180018001C00070008001000100032E
:105440000003060306038601F800000000000000C8
:105450000000000000000000000080018001C00189
:10546000A001A00190018801880184018201FE0F42
:105470008001800180018001E00700000000000041
:1054800000000000000000000000FC030400040015
:10549000040004000400F4008C0104030003000372
:1054A0000603060382018401F800000000000000EA
:1054B00000000000000000000000E00118030C03E1
:1054C0000C0004000600E60116030E06060606069A
:1054D000060604060C021803F0000000000000009D
:1054E00000000000000000000000F8070C060402A5
:1054F00004010001000180008000400040004000E5
:1055000060006000600060006000000000000000BB
:1055100000000000000000000000F8010C03060677
:10552000060606060C021C03F000C8010C03060662
:105530000606060606060C03F00100000000000047
:1055400000000000000000000000F0000C010C034F
:10555000060206060606060606078C0678060006FC
:10556000000300030C018C01780000000000000023
:10557000000000000000000000000000000000002B
:1055800000000000E000E000E0000000000000007B
:1055900000000000E000E000E0000000000000006B
:1055A00000000000000000000000000000000000FB
:1055B000000000006000600000000000000000002B
:1055C000000000000000600060004000200020009B
:1055D0000000000000000000000400020001800044
:1055E0004000200010000800040008001000200007
:1055F00040008000000100020004000000000000E4
:10560000000000000000000000000000000000009A
:1056100000000000FE07000000000000FE07000080
:10562000000000000000000000000000000000007A
:10563000000000000000000004000800100020002E
:105640004000800000010002000400020001800010
:1056500040002000100008000400000000000000CE
:1056600000000000000000000000E0031806040C29
:10567000040C0C0C0C0C00078001400040004000A2
:1056800000000000E000E000E0000000000000007A
:105690000000000000000000E00018030C02CC0530
:1056A00064056605A605B604B604B604B604B602DB
:1056B000E4010C040C021803F000000000000000DC
:1056C00000000000000000000000600060005000CA
:1056D000D00090009000880088010801F8010403C0
:1056E00004030402020202060F0F00000000000083
:1056F00000000000000000000000FE008C030C030E
:105700000C030C030C038C01FC000C030C020C06B4
:105710000C060C060C060C03FE0100000000000045
:1057200000000000000000000000E00318030C0669
:105730000C0404040600060006000600060006002D
:1057400006040C040C021803F00000000000000026
:10575000000000000000000000007F008C010C032E
:105760000C030C060C060C060C060C060C060C06AC
:105770000C060C030C038C017F00000000000000ED
:1057800000000000000000000000FF030603060404
:105790000604060086008600FE008600860086005D
:1057A0000600060406040602FF03000000000000D5
:1057B00000000000000000000000FF0306030604D4
:1057C0000604060086008600FE008600860086002D
:1057D00006000600060006001F0000000000000092
:1057E00000000000000000000000F00018010C02A2
:1057F0000C0204020600060006000600C60F06039F
:1058000006030C030C031803F00000000000000066
:10581000000000000000000000000F0F0606060652
:105820000606060606060606FE070606060606061F
:1058300006060606060606060F0F0000000000001A
:1058400000000000000000000000FC036000600099
:105850006000600060006000600060006000600048
:105860006000600060006000FC03000000000000B9
:1058700000000000000000000000F807C000C000A9
:10588000C000C000C000C000C000C000C000C00018
:10589000C000C000C000C000C000C60066003C00E0
:1058A00000000000000000000000CF038601C600D9
:1058B00046002600160036002E006E004600C60088
:1058C00086008601060106038F0700000000000025
:1058D000000000000000000000001F00060006009D
:1058E0000600060006000600060006000600060088
:1058F0000600060406040602FF0300000000000084
:105900000000000000000000000007078603860377
:105910008E038E034E034E034A035A035A033A037F
:105920003203320332031203870700000000000035
:10593000000000000000000000008E0F0C021C029E
:105940001C0234023402640264024402C40284026F
:1059500084038403040304031F020000000000000A
:1059600000000000000000000000F00098010C039F
:105970000C020606060606060606060606060606C5
:1059800006060C020C039801F00000000000000065
:1059900000000000000000000000FF0006030606F3
:1059A00006060606060606068603FE000600060034
:1059B00006000600060006001F00000000000000B0
:1059C00000000000000000000000F00098010C033F
:1059D0000C02060606060606060606060606060665
:1059E00076064C02CC039801F0008007000300000B
:1059F00000000000000000000000FF010603060692
:105A00000606060606060603FE004600C6008600D9
:105A100086010603060306060F0E000000000000C4
:105A200000000000000000000000F8020C03060265
:105A3000060206000E003C00F800E00380030007A9
:105A40000206020606060C03F0010000000000003A
:105A500000000000000000000000FE076204610872
:105A6000610860006000600060006000600060002D
:105A70006000600060006000F801000000000000AD
:105A8000000000000000000000001E070C020C02D5
:105A90000C020C020C020C020C020C020C020C0296
:105AA0000C020C020C021801F000000000000000C3
:105AB000000000000000000000000F0706020401C3
:105AC00004010C010C018800880098009800500027
:105AD0005000700030002000200000000000000096
